S02B00004469676974616C2053656375726974792053797374656D207573696E6720454550524F4D2E73726553
S11300000C942A000C9447000C9447000C9447006D
S11300100C9447000C9447000C9447000C94470040
S11300200C9447000C9447000C9447000C94470030
S11300300C9447000C9447000C9447000C94470020
S11300400C9447000C9447000C9447000C94470010
S11300500C94470011241FBECFE5D4E0DEBFCDBF12
S113006011E0A0E6B0E0EEE6FCE002C005900D92DF
S1130070A030B107D9F721E0A0E0B1E001C01D92A2
S1130080A932B207E1F70E94AC010C9435060C9436
S113009000008BBBC098C198C29A85E08A95F1F79D
S11300A00000C2988FE891E00197F1F700C00000CA
S11300B008958BBBC09AC198C29A85E08A95F1F7DE
S11300C00000C2988FE891E00197F1F700C00000AA
S11300D008958FEF8ABB87BBC29888E30E944900CA
S11300E08FE99FE00197F1F700C000008EE00E94C5
S11300F049008FE99FE00197F1F700C0000081E01B
S11301000E9449008FE99FE00197F1F700C00000C9
S1130110089581E00E9449008FE99FE00197F1F77B
S113012000C0000008951F93CF93DF93EC018881F2
S1130130882381F010E00E9459001F5F8FE99FE03F
S11301400197F1F700C00000FE01E10FF11D80816D
S11301508111F1CFDF91CF911F910895813029F45E
S1130160862F81580E9449000895823021F4862FF9
S113017081540E94490008958FE084BB8FEF85BBB2
S113018081BB0895C49A2FEF81EE94E02150804002
S11301909040E1F700C0000088B3877088BB0895E1
S11301A08823E1F090E028B3206328BB2FEF32E5E9
S11301B047E0215030404040E1F700C0000028B340
S11301C0277028BB2FEF32E547E0215030404040F4
S11301D0E1F700C000009F5F9813E5CF089580E128
S11301E082BB2FEF8BE792E9215080409040E1F7EA
S11301F000C0000012BA089580E282BB2FEF8BE7A3
S113020092E9215080409040E1F700C0000012BA0A
S11302100895882381F190E058E044E032E021E041
S113022052BB6FEF70E7E2E061507040E040E1F7ED
S113023000C0000042BB6FEF70E7E2E06150704025
S1130240E040E1F700C0000032BB6FEF70E7E2E08E
S113025061507040E040E1F700C0000022BB6FEF46
S113026070E7E2E061507040E040E1F700C0000058
S11302709F5F9813D5CF0895882379F190E043E0E8
S113028034E022E042BB5FEF60E772E0515060402F
S11302907040E1F700C0000012BA5FEF60E772E05F
S11302A0515060407040E1F700C0000032BB5FEF86
S11302B060E772E0515060407040E1F700C0000018
S11302C022BB5FEF60E772E0515060407040E1F79D
S11302D000C000009F5F9813D5CF089520E530E05B
S11302E03FBB2EBBE199FECF8DBBE29AE19A089504
S11302F021E530E03FBB2EBBE199FECF8DBBE29AF6
S1130300E19A089580E590E09FBB8EBBE199FECF12
S1130310E09A8DB380930001089581E590E09FBB3E
S11303208EBBE199FECFE09A8DB3809305010895C9
S113033020E0822F90E09FBB8EBBE199FECFE09A34
S11303408DB3E22FF0E0E95FFE4F80832F5F809151
S11303500501821770F708950E94BC000E9469008D
S113036088E30E9449002FEF89EF90E021508040FC
S11303709040E1F700C0000081E00E9449002FEFA7
S113038089EF90E0215080409040E1F700C00000E8
S11303908CE00E94490080910301811157C08CE0D8
S11303A00E94490064E081E00E94AE0081E690E092
S11303B00E9493002FEF83ED90E321508040904002
S11303C0E1F700C000000E948D010E9482010E949A
S11303D098010E9489008CE690E00E9493000E949C
S11303E089008BE790E00E94930080910501805D75
S11303F00E9459008EE790E00E94930080910001D2
S1130400805D0E9459002FEF83ED90E321508040DE
S11304109040E1F700C0000080910501882369F055
S1130420C0E0EC2FF0E0E95FFE4F80810E945900AC
S1130430CF5F80910501C817A0F32FEF83ED90E300
S1130440215080409040E1F700C0000081E080939B
S113045003011092170180910601843009F47BC0D6
S1130460853049F080910001811175C081E00E94BE
S11304706E010E94820110920601109202010E94F4
S1130480890080E80E94490082E890E00E9493007D
S11304902FEF83EC99E0215080409040E1F700C0B9
S11304A0000061E082E00E94AE008FE084BB8FEF29
S11304B085BB0E949C03809160008130D1F38091C0
S11304C017018093010182E0809360002FEF81EE99
S11304D094E0215080409040E1F700C000000E9469
S11304E0890080E990E00E94930061E082E00E942C
S11304F0AE0080E00E9478010E948D01809101018C
S1130500882301F110E0212F30E03FBB2EBBE1999D
S1130510FECFC12FD0E0FE01E85EFE4F80818DBB8F
S1130520C95FDE4F8883E29AE19A1F5F812F0E94A0
S113053078010E948D0188810E94590080910101F7
S1130540181708F32FEF87EA91E621508040904076
S1130550E1F700C0000088E08093280110921701A1
S11305600E94890080EA90E00E94930061E082E0AA
S11305700E94AE008FEF85BBC1E0C09302010E94D0
S11305809C03FBCFCF9380912801883009F0D2C01F
S113059080911701909105018913CCC0882391F0B3
S11305A0E7E0F1E0A8E1B1E0815090E0885F9E4F80
S11305B040E031912D91321301C04F5FE817F907E4
S11305C0C1F701C040E02FEF81EE94E0215080405C
S11305D09040E1F700C0000085E0809328018091FD
S11305E00501481382C0809106018F5F8093060144
S11305F0853011F40E94AC010E94890080EB90E0E8
S11306000E9493002FEF83ED90E3215080409040AF
S1130610E1F700C0000082E00E943C012FEF87EA6E
S113062091E6215080409040E1F700C000000E9414
S1130630FC002FEF83ED90E3215080409040E1F7E0
S113064000C00000C3E00E9489002FEF87E893E117
S1130650215080409040E1F700C0000064E081E058
S11306600E94AE008CEB90E00E94930064E082E074
S11306700E94AE008CEB90E00E9493002FEF8BE47D
S11306809DE1215080409040E1F700C00000C1503E
S1130690D1F62FEF83E294EF215080409040E1F7B0
S11306A000C000000E94EF002FEF83ED90E3215083
S11306B080409040E1F700C0000082E00E94090100
S11306C00E94890065E081E00E94AE0087EC90E022
S11306D00E9493002FEF83ED90E3215080409040DF
S11306E0E1F700C000000E94AC010E94890081ED86
S11306F090E00E9493002FEF89E698E1215080401A
S11307009040E1F700C0000083E00E94D00063E065
S113071082E00E94AE0082EE90E00E9493002FEFF0
S113072083ED90E3215080409040E1F700C0000049
S11307300E94AC01CF9108952F923F924F925F9205
S11307406F927F928F929F92AF92BF92CF92DF92DD
S1130750EF92FF921F93CF93DF93C0E0D0E0222467
S11307602394312C6894442441F80F2EF3E45F2E33
S1130770F02D0F2EF2E46F2EF02D0F2EF1E47F2ECC
S1130780F02D0F2EF0E38F2EF02D0F2EF9E39F2E78
S1130790F02D0F2EF8E3AF2EF02D0F2EF7E3BF2E22
S11307A0F02D0F2EF6E3CF2EF02D0F2EF5E3DF2ED6
S11307B0F02D0F2EF4E3EF2EF02D0F2EF3E3FF2E8A
S11307C0F02D8FE99FE00197F1F700C0000091013F
S11307D00C2E02C0220F331F0A94E2F7822F809559
S11307E085BB8FE99FE00197F1F700C0000083B358
S11307F08F608F3F09F41DC29FEF49EF80E0915055
S113080040408040E1F700C0000083B38F608F3F19
S113081009F40FC220952F70807F282B83B38F603B
S11308208F3FE1F79FEF39EF40E091503040404077
S1130830E1F700C000002E3B89F188F42E37B1F1B6
S113084038F42B37B9F12D3799F12737B9F534C07E
S11308502B3B41F12D3B21F1273B81F525C02E3D5A
S1130860A9F038F42B3DB1F02D3D91F0273D31F541
S113087013C02B3E09F4E5C118F4273EF9F420C057
S11308802D3E09F4DCC12E3EC9F434C0182D33C00A
S11308901A2D31C01D2D2FC012E32DC013E22BC021
S11308A0192D29C01C2D27C01F2D25C014E423C0D9
S11308B0152D21C0162D1FC0172D1DC018E51BC0F6
S11308C0E0911701F0E0E85EFE4F81E380830E942F
S11308D059000E94C200809117018F5F8093170115
S11308E080E10E9449008AE20E9459000E94C202EB
S11308F011E337C01AE21233C9F4E0911701F0E0B2
S1130900E85EFE4F82E380830E94590080911701C4
S11309108F5F809317010E94C20080E10E9449000A
S11309208AE20E9459000E94C20236C01333C9F4FD
S1130930E0911701F0E0E85EFE4FF0828F2D0E94F7
S11309405900809117018F5F809317010E94C200A4
S113095080E10E9449008AE20E9459000E94C2027A
S113096036C01433C9F4E0911701F0E0E85EFE4F9D
S1130970E0828E2D0E945900809117018F5F809331
S113098017010E94C20080E10E9449008AE20E948D
S113099059000E94C20236C01533C9F4E091170110
S11309A0F0E0E85EFE4FD0828D2D0E9459008091C8
S11309B017018F5F809317010E94C20080E10E949B
S11309C049008AE20E9459000E94C20236C01633CE
S11309D0C9F4E0911701F0E0E85EFE4FC0828C2D6F
S11309E00E945900809117018F5F809317010E9424
S11309F0C20080E10E9449008AE20E9459000E94DC
S1130A00C20236C01733C9F4E0911701F0E0E85E82
S1130A10FE4FB0828B2D0E945900809117018F5F89
S1130A20809317010E94C20080E10E9449008AE27B
S1130A300E9459000E94C20236C01833C9F4E091E2
S1130A401701F0E0E85EFE4FA0828A2D0E94590053
S1130A50809117018F5F809317010E94C20080E18B
S1130A600E9449008AE20E9459000E94C20236C0D4
S1130A701933C9F4E0911701F0E0E85EFE4F90826B
S1130A80892D0E945900809117018F5F809317016F
S1130A900E94C20080E10E9449008AE20E9459003B
S1130AA00E94C20236C01033C9F4E0911701F0E08D
S1130AB0E85EFE4F8082882D0E94590080911701C4
S1130AC08F5F809317010E94C20080E10E94490059
S1130AD08AE20E9459000E94C20236C01134C9F44D
S1130AE0E0911701F0E0E85EFE4F7082872D0E94CE
S1130AF05900809117018F5F809317010E94C200F3
S1130B0080E10E9449008AE20E9459000E94C202C8
S1130B1036C01234C9F4E0911701F0E0E85EFE4FEC
S1130B206082862D0E945900809117018F5F809307
S1130B3017010E94C20080E10E9449008AE20E94DB
S1130B4059000E94C20250C01334C9F4E091170145
S1130B50F0E0E85EFE4F5082852D0E94590080919E
S1130B6017018F5F809317010E94C20080E10E94E9
S1130B7049008AE20E9459000E94C2025AC01434F9
S1130B80F9F40E9489008FEE90E00E94930063E0E4
S1130B9082E00E94AE0089ED90E00E9493008FEF06
S1130BA099E628E1815090402040E1F700C0000020
S1130BB081E08093600084E0809306010E94AC0190
S1130BC0133291F480911701882399F10E94C20095
S1130BD08EE00E94490080E10E9449008091170143
S1130BE081508093170125C01A3219F5809117019D
S1130BF08823F9F0809102018130D9F00E948900A4
S1130C0067E081E00E94AE008DEF90E00E949300C7
S1130C1088B3806388BB3FEF45EA8EE031504040A3
S1130C208040E1F700C0000088B3877088BB409221
S1130C3060002196C430D10509F0C3CD04C01B2D3A
S1130C405ACE1E2D58CEDF91CF911F91FF90EF9079
S1130C50DF90CF90BF90AF909F908F907F906F90D8
S1110C605F904F903F902F900895F894FFCF2F
S1130C6E0157454C434F4D45212121005361766573
S1130C7E6420646174612069733A00623D002061EE
S1130C8E3D005365742050617373776F72643A003C
S1130C9E55722050617373776F72642069733A00D2
S1130CAE456E7465722050617373776F72643A0087
S1130CBE556E6C6F636B65642121210057656C431F
S1130CCE6F6D65212121004C6F636B6564212121B9
S1130CDE00494E56414C49442050617373776F72EC
S1130CEE640054727920416761696E2E2E2E005471
S1130CFE30204348414E474520544845004F4B0051
S9030000FC
